{
  "contractName": "Coinflip",
  "abi": [
    {
      "anonymous": false,
      "inputs": [
        {
          "indexed": false,
          "internalType": "bool",
          "name": "result",
          "type": "bool"
        },
        {
          "indexed": false,
          "internalType": "uint256",
          "name": "value",
          "type": "uint256"
        }
      ],
      "name": "flipResult",
      "type": "event"
    },
    {
      "constant": true,
      "inputs": [],
      "name": "owner",
      "outputs": [
        {
          "internalType": "address",
          "name": "",
          "type": "address"
        }
      ],
      "payable": false,
      "stateMutability": "view",
      "type": "function"
    },
    {
      "constant": true,
      "inputs": [],
      "name": "getDappBalance",
      "outputs": [
        {
          "internalType": "uint256",
          "name": "",
          "type": "uint256"
        }
      ],
      "payable": false,
      "stateMutability": "view",
      "type": "function"
    },
    {
      "constant": false,
      "inputs": [
        {
          "internalType": "bool",
          "name": "value",
          "type": "bool"
        }
      ],
      "name": "flip",
      "outputs": [],
      "payable": true,
      "stateMutability": "payable",
      "type": "function"
    },
    {
      "constant": false,
      "inputs": [],
      "name": "deposit",
      "outputs": [],
      "payable": true,
      "stateMutability": "payable",
      "type": "function"
    },
    {
      "constant": false,
      "inputs": [],
      "name": "withdrawAll",
      "outputs": [
        {
          "internalType": "uint256",
          "name": "",
          "type": "uint256"
        }
      ],
      "payable": false,
      "stateMutability": "nonpayable",
      "type": "function"
    }
  ],
  "bytecode": "0x6080604052336000806101000a81548173ffffffffffffffffffffffffffffffffffffffff021916908373ffffffffffffffffffffffffffffffffffffffff160217905550610411806100536000396000f3fe60806040526004361061004a5760003560e01c806317c6c81a1461004f5780631d263f671461007a578063853828b6146100aa5780638da5cb5b146100d5578063d0e30db01461012c575b600080fd5b34801561005b57600080fd5b50610064610136565b6040518082815260200191505060405180910390f35b6100a86004803603602081101561009057600080fd5b81019080803515159060200190929190505050610140565b005b3480156100b657600080fd5b506100bf610282565b6040518082815260200191505060405180910390f35b3480156100e157600080fd5b506100ea61033a565b604051808273ffffffffffffffffffffffffffffffffffffffff1673ffffffffffffffffffffffffffffffffffffffff16815260200191505060405180910390f35b61013461035f565b005b6000600154905090565b6000349050600061014f6103ca565b9050600081148015610165575060011515831515145b80610180575060018114801561017f575060001515831515145b5b156101de57816001600082825401925050819055507f64d6b5674bd6b752ef2a4ad0690fdf47f78a9ab0973317275b9e1e0e4fa0133a60008260405180831515151581526020018281526020019250505060405180910390a161027d565b816001600082825403925050819055503373ffffffffffffffffffffffffffffffffffffffff166108fc600284029081150290604051600060405180830381858888f19350505050158015610237573d6000803e3d6000fd5b507f64d6b5674bd6b752ef2a4ad0690fdf47f78a9ab0973317275b9e1e0e4fa0133a60018260405180831515151581526020018281526020019250505060405180910390a15b505050565b60008060009054906101000a900473ffffffffffffffffffffffffffffffffffffffff1673ffffffffffffffffffffffffffffffffffffffff163373ffffffffffffffffffffffffffffffffffffffff16146102dd57600080fd5b6000600154905060006001819055503373ffffffffffffffffffffffffffffffffffffffff166108fc829081150290604051600060405180830381858888f19350505050158015610332573d6000803e3d6000fd5b508091505090565b6000809054906101000a900473ffffffffffffffffffffffffffffffffffffffff1681565b6000809054906101000a900473ffffffffffffffffffffffffffffffffffffffff1673ffffffffffffffffffffffffffffffffffffffff163373ffffffffffffffffffffffffffffffffffffffff16146103b857600080fd5b34600160008282540192505081905550565b6000600242816103d657fe5b0690509056fea265627a7a72315820877a18ae91c26f90a53ccd87ebabdd9eb0dc2c1e09cb84546a68cbf7c0cc67b064736f6c634300050c0032",
  "source": "import \"./Ownable.sol\";\r\npragma solidity 0.5.12;\r\n\r\ncontract Coinflip is Ownable {\r\n\tuint balance;\r\n\r\n\tevent flipResult(bool result, uint value);\r\n\r\n\tfunction getDappBalance() public view returns(uint) {\r\n\t\treturn balance;\r\n\t}\r\n\r\n\tfunction flip(bool value) public payable {\r\n\t\tuint bet = msg.value;\r\n\t\tuint random = random();\r\n\t\tif (random == 0 && value == true || random == 1 && value == false) {\r\n\t\t\tbalance += bet;\r\n\t\t\temit flipResult(false, random);\r\n\t\t} else {\r\n\t\t\tbalance -= bet;\r\n\t\t\tmsg.sender.transfer(bet*2);\r\n\t\t\temit flipResult(true, random);\r\n\t\t}\r\n\t}\r\n\r\n\tfunction deposit() public onlyOwner payable {\r\n\t\tbalance += msg.value;\r\n\t}\r\n\r\n\tfunction withdrawAll() public onlyOwner returns(uint) {\r\n\t    uint toTransfer = balance;\r\n\t    balance = 0;\r\n\t    msg.sender.transfer(toTransfer);\r\n\t    return toTransfer;\r\n\t}\r\n\r\n\tfunction random() private view returns(uint) {\r\n\t\treturn now % 2;\r\n\t}\r\n}\r\n",
  "sourcePath": "C:\\Users\\User\\Desktop\\CoinFlipDapp-main\\contracts\\Coinflip.sol",
  "compiler": {
    "name": "solc",
    "version": "0.5.12+commit.7709ece9.Emscripten.clang"
  },
  "schemaVersion": "3.4.4",
  "updatedAt": "2022-03-02T09:47:25.394Z",
  "devdoc": {
    "methods": {}
  },
  "userdoc": {
    "methods": {}
  }
}